:020000020000FC
:102000004F938F939F930F93F89445B14C7F45B9AD
:1020100044B1436044B94BB14F704BB94AB1406FC2
:102020004AB9789490E084E60E94D01091E48FEF52
:102030000E94D010F8944BB14F7040634BB9789424
:102040000E94721091E18FEF0E94D010F8944BB172
:102050004F7040634BB978940E94721090E088E70B
:102060000E94D010F8944BB14F7040634BB97894F4
:102070000E947210F8944BB14F7040624BB9789443
:102080000E94721008E20E9480100CE00E948010F2
:1020900006E00E9480100E94BE100F919F918F91C8
:1020A0004F9108950E9457100E94BD1008950F93FC
:1020B000012F0E946C100F9108958F939F930F939F
:1020C0000F7300640E94801090E088E20E94D0109C
:1020D0000F919F918F9108950F9300680E94801037
:1020E0000F9108958F939F93299A90E084E10E9425
:1020F000D010299884E10E94D0109F918F9108956B
:102100000F931F934F93102F107F000F000F000F9E
:10211000000F2898F8944BB14F70412B4BB978942D
:102120000E947210F8944BB14F70402B4BB97894C9
:102130000E9472104F911F910F9108950F931F935A
:102140004F93102F107F000F000F000F000F289AE1
:10215000F8944BB14F70412B4BB978940E94721098
:10216000F8944BB14F70402B4BB978940E94721089
:1021700028984F911F910F910895E0CF9F938F93CF
:102180000F9301E00E94801097E08FEF0E94D01023
:102190000F918F919F9108952A9A08952A980895F2
:1021A0004F9344E04A95F1F70197D9F74F9108957D
:040000000C94080153
:04002C000C946A02C4
:1002000056414A49434B412055564152454E4100C3
:100210000E9400100E9447020E945F02E0E0F2E0AC
:1002200040E050E020E030E000E0009300010E9458
:10023000280112E00AE30E9452100E943E010C9431
:1002400099010E9452101395103141F30C94210131
:100250000F936F9300E0642F6A3020F06A5003958B
:100260000C942C0110E0005D0E9452101395062F93
:10027000005D0E9452106F910F9108950F936F933C
:1002800000E0652F6A3020F06A5003950C9442011B
:1002900013E0005D0E9452101395062F005D0E942E
:1002A00052106F910F9108950F9360E00E947B01AF
:1002B0000091790002950F700330D1F00F910895ED
:1002C0000F9360E00E947B010091790002950F700E
:1002D000013071F00F9108950F9360E00E947B014F
:1002E0000091790002950F70093011F00F91089577
:1002F00061E00F9108950F931F93109140000091BA
:100300007A00006400937A0000917A001023103084
:10031000D9F71F910F9108953F93322F31703030EC
:1003200021F00E9428013F9108950E94F9013F9118
:100330000895709100017030E1F370E07093000156
:1003400023950E948C010E946C01613021F10E9472
:100350005401613069F00E946001613061F00E94D7
:1003600074020C9499014C3320F34C530C94B30158
:100370004A950C94B30143950C94B3013F93322FEB
:100380003170303021F00E943E013F9108950E946B
:1003900005023F9108950E9428017091000170307C
:1003A000E1F370E07093000123950E94BE010E946A
:1003B0006C016130D1F10E946001613031F00E9426
:1003C0005401613029F00C94CD0153950C94EB014C
:1003D0005A950C94EB015C3300F35C530C94EB01E5
:1003E0005A955F3F09F00895403071F14A955BE3FB
:1003F00008950F931F9300E010E00E945210139590
:100400000E9452101F910F9108950F931F9300E0C7
:1004100013E00E94521013950E9452101F910F91E9
:10042000089500E010E00C942101709100017030FB
:10043000E1F370E0709300010E9428010E943E01E8
:100440000E94F0010C94150210E040E050E0709121
:1004500000017030C9F370E07093000123950E9491
:10046000BE010E948C013395393011F00C942402A6
:1004700060E005910E9452101395003011F00C9429
:1004800038020E946C01613061F20C9441020F93BA
:10049000F8940027009385000093840002E0009305
:1004A0006F000AE0009381000DE30093890008E0EB
:1004B0000093880000270DBB78940F9108950F9347
:1004C00000917A00006800937A0000E600937C00B7
:1004D0000F9108950F930FB70F9301E00093000160
:1004E0000F910FBF0F9118954F935F936F936AE031
:1004F0005AE04AE04A95F1F75A95D9F76A95C1F75B
:080500006F915F914F91089586
:00000001FF
