:020000020000FC
:102000004F938F939F930F93F89445B14C7F45B9AD
:1020100044B1436044B94BB14F704BB94AB1406FC2
:102020004AB9789490E084E60E94D01091E48FEF52
:102030000E94D010F8944BB14F7040634BB9789424
:102040000E94721091E18FEF0E94D010F8944BB172
:102050004F7040634BB978940E94721090E088E70B
:102060000E94D010F8944BB14F7040634BB97894F4
:102070000E947210F8944BB14F7040624BB9789443
:102080000E94721008E20E9480100CE00E948010F2
:1020900006E00E9480100E94BE100F919F918F91C8
:1020A0004F9108950E9457100E94BD1008950F93FC
:1020B000012F0E946C100F9108958F939F930F939F
:1020C0000F7300640E94801090E088E20E94D0109C
:1020D0000F919F918F9108950F9300680E94801037
:1020E0000F9108958F939F93299A90E084E10E9425
:1020F000D010299884E10E94D0109F918F9108956B
:102100000F931F934F93102F107F000F000F000F9E
:10211000000F2898F8944BB14F70412B4BB978942D
:102120000E947210F8944BB14F70402B4BB97894C9
:102130000E9472104F911F910F9108950F931F935A
:102140004F93102F107F000F000F000F000F289AE1
:10215000F8944BB14F70412B4BB978940E94721098
:10216000F8944BB14F70402B4BB978940E94721089
:1021700028984F911F910F910895E0CF9F938F93CF
:102180000F9301E00E94801097E08FEF0E94D01023
:102190000F918F919F9108952A9A08952A980895F2
:1021A0004F9344E04A95F1F70197D9F74F9108957D
:040000000C940E014D
:04002C000C947401BB
:100200004E45425544452D4C492050525345542C9F
:10021000204E455A4D4F4B4E454D00000E94001058
:100220000E945101E0E0F2E01FE430E07091000133
:100230007030E1F370E070930001103378F31FE445
:10024000E0E0F2E0131B33950C942D011395003080
:1002500069F3103559F31035C8F70591103430F0B3
:100260000030C9F00E9452100C942601003059F061
:100270001053103528F40E945210105D0C94260182
:10028000105D0C94260100E210530E945210105D84
:1002900000E00C94260100E20E94521000E00C9451
:1002A00026010F93F89400270093850000938400A3
:1002B00002E000936F000CE0009381000DE30093D7
:1002C000890008E00093880000270DBB78940F9107
:1002D00008950F9300917A00006800937A0000E679
:1002E00000937C000F9108950F930FB70F9301E0D7
:1002F000009300010F910FBF0F9118950C947E0190
:00000001FF
