:020000020000FC
:040000000C94FF015C
:100200004E45425544452D4C4920505253455420AB
:100210004E455A4D4F4B4E454D004F938F939F93F4
:100220000F93F89445B14C7F45B944B1436044B94C
:100230004BB14F704BB94AB1406F4AB9789490E0D6
:1002400084E60E94DD0191E48FEF0E94DD01F894C5
:100250004BB14F7040634BB978940E947F0191E19C
:100260008FEF0E94DD01F8944BB14F7040634BB9A2
:1002700078940E947F0190E088E70E94DD01F89465
:100280004BB14F7040634BB978940E947F01F89452
:100290004BB14F7040624BB978940E947F0108E2E5
:1002A0000E948D010CE00E948D0106E00E948D01EC
:1002B0000E94CB010F919F918F914F9108950E94C1
:1002C00064010E94CA0108950F93012F0E947901D1
:1002D0000F9108958F939F930F930F7300640E9463
:1002E0008D0190E088E20E94DD010F919F918F9136
:1002F00008950F9300680E948D010F9108958F93C8
:100300009F93299A90E084E10E94DD01299884E17D
:100310000E94DD019F918F9108950F931F934F933A
:10032000102F107F000F000F000F000F2898F89477
:100330004BB14F70412B4BB978940E947F01F894D8
:100340004BB14F70402B4BB978940E947F014F9175
:100350001F910F9108950F931F934F93102F107FAC
:10036000000F000F000F000F289AF8944BB14F7048
:10037000412B4BB978940E947F01F8944BB14F7098
:10038000402B4BB978940E947F0128984F911F9180
:100390000F910895E0CF9F938F930F9301E00E94F8
:1003A0008D0197E08FEF0E94DD010F918F919F915A
:1003B00008952A9A08952A9808954F9344E04A95FB
:0A03C000F1F70197D9F74F91089566
:1003FE000E940D01E0E0F2E01FE430E00E943B02BB
:10040E001033B0F31FE4E0E0F2E0131B33950C94CD
:10041E0017021395003091F3103581F31035C8F79C
:10042E000591103430F00030C9F00E945F010C9439
:10043E001002003059F01053103528F40E945F015D
:10044E00105D0C941002105D0C94100200E210531B
:10045E000E945F01105D00E00C94100200E20E9409
:10046E005F0100E00C9410024F935F936F9362E371
:10047E0058EC48EC4A95F1F75A95D9F76A95C1F7B9
:0C048E006F915F914F9108950C944B0208
:00000001FF
