:020000020000FC
:102000004F938F939F930F93F89445B14C7F45B9AD
:1020100044B1436044B94BB14F704BB94AB1406FC2
:102020004AB9789490E084E60E94D01091E48FEF52
:102030000E94D010F8944BB14F7040634BB9789424
:102040000E94721091E18FEF0E94D010F8944BB172
:102050004F7040634BB978940E94721090E088E70B
:102060000E94D010F8944BB14F7040634BB97894F4
:102070000E947210F8944BB14F7040624BB9789443
:102080000E94721008E20E9480100CE00E948010F2
:1020900006E00E9480100E94BE100F919F918F91C8
:1020A0004F9108950E9457100E94BD1008950F93FC
:1020B000012F0E946C100F9108958F939F930F939F
:1020C0000F7300640E94801090E088E20E94D0109C
:1020D0000F919F918F9108950F9300680E94801037
:1020E0000F9108958F939F93299A90E084E10E9425
:1020F000D010299884E10E94D0109F918F9108956B
:102100000F931F934F93102F107F000F000F000F9E
:10211000000F2898F8944BB14F70412B4BB978942D
:102120000E947210F8944BB14F70402B4BB97894C9
:102130000E9472104F911F910F9108950F931F935A
:102140004F93102F107F000F000F000F000F289AE1
:10215000F8944BB14F70412B4BB978940E94721098
:10216000F8944BB14F70402B4BB978940E94721089
:1021700028984F911F910F910895E0CF9F938F93CF
:102180000F9301E00E94801097E08FEF0E94D01023
:102190000F918F919F9108952A9A08952A980895F2
:1021A0004F9344E04A95F1F70197D9F74F9108957D
:1021B0000F931F936F9300E0642F6A3020F06A50F2
:1021C00003950C94DD1015E0005D0E9452101395EC
:1021D000062F005D0E9452106F911F910F9108957C
:1021E0000F931F936F9300E0652F6A3020F06A50C1
:1021F00003950C94F51018E0005D0E9452101395A1
:10220000062F005D0E9452106F911F910F9108954B
:102210000F9360E00E944A110091790002950F70BF
:102220000030A9F10F9108950F9360E00E944A11C8
:102230000091790002950F70033049F10F910895D4
:102240000F9360E00E944A110091790002950F708F
:102250000130E9F00F9108950F9360E00E944A1158
:102260000091790002950F70093089F00F9108955F
:102270000F93C0E00E944A110091790002950F70FF
:102280000F3011F00F910895C1E00F91089561E0B2
:102290000F9108950F931F931091400000917A00C1
:1022A000006400937A0000917A0010231030D9F76F
:1022B0001F910F9108950E942C116130A1F481E0CB
:1022C00008950E942011613071F482E008950E9407
:1022D0001411613041F483E008950E9408116130C7
:1022E00011F484E00895089543954C33E0F34C5382
:1022F00008954A954F3FB9F74BE3089553955C33E2
:1023000090F35C5308955A955F3F69F75BE3089536
:102310003F93322F3170303021F00E94F0103F9106
:1023200008950E94AE113F9108953F93322F31706E
:10233000303021F00E94D8103F9108950E94A211E0
:102340003F9108950F931F9300E215E00E945210F1
:1023500013950E9452101F910F9108950F931F9390
:1023600000E218E00E94521013950E9452101F9133
:102370000F9108950F931F9300E215E40E945210ED
:1023800013951A34D9F71F910F91089580E00F9398
:102390001F930E94D4110AE317E40E9452100E9476
:1023A000EC111F910F9108950F931F936F9300E00D
:1023B000642F6A3020F06A5003950C94D91115E40B
:1023C000005D0E9452101395062F005D0E9452106E
:1023D0006F911F910F9108950F931F936F9300E0DA
:1023E000652F6A3020F06A5003950C94F11118E4BF
:1023F000005D0E9452101395062F005D0E9452103E
:082400006F911F910F910895E7
:040000000C94080153
:04002C000C94EB0144
:1002000056414A49434B412055564152454E4100C3
:100210000E94E0010E940010E0E0F2E040E050E0C7
:10022000D9E180E00E94C80100E0009300010E9433
:10023000D8100AE317E00E94521020E00E94F0104C
:100240000E945B110E9461110E9467110E94381187
:10025000C130B1F770910001703091F370E070938C
:10026000000123950E949511813081F0823021F0A8
:10027000833039F00C94200180E00E9474110C94BA
:10028000200180E00E9479110C94200180E020E0A0
:100290000E94D8100E945B110E9461110E94671198
:1002A0000E943811C130B1F770910001703091F3A4
:1002B00070E07093000123950E948811813009F14C
:1002C000823021F0833039F00C944A0180E00E94A2
:1002D0007E110C944A0180E00E9483110C944A0123
:1002E000843059F05A955F3F11F00C9485014030ED
:1002F000E9F04A955BE30C9485010E94C6110C94C9
:10030000720180E0DDE30E94C8010E946D117091CE
:1003100000017030D1F370E0709300010E94D8109A
:100320000E94F0100C9470010C940801D9E180E057
:100330000E94C80110E020E030E040E050E00E9460
:10034000BA11709100017030E1F370E07093000118
:1003500023950E9488110E9495113395383011F031
:100360000C94A10160E00591003029F00E94521028
:1003700013950C94B2010E945B11709100017030D2
:10038000D1F370E070930001813071F20C94BB01E5
:100390000F93F8940027009385000093840002E0F7
:1003A00000936F000DE0009381000D2F00938900F2
:1003B00008E00093880000270DBB78940F91089502
:1003C0000F9300917A00006800937A0000E6009392
:1003D0007C000F9108950F930FB70F9301E00093E6
:0A03E00000010F910FBF0F91189557
:00000001FF
