:020000020000FC
:102000004F938F939F930F93F89445B14C7F45B9AD
:1020100044B1436044B94BB14F704BB94AB1406FC2
:102020004AB9789490E084E60E94D01091E48FEF52
:102030000E94D010F8944BB14F7040634BB9789424
:102040000E94721091E18FEF0E94D010F8944BB172
:102050004F7040634BB978940E94721090E088E70B
:102060000E94D010F8944BB14F7040634BB97894F4
:102070000E947210F8944BB14F7040624BB9789443
:102080000E94721008E20E9480100CE00E948010F2
:1020900006E00E9480100E94BE100F919F918F91C8
:1020A0004F9108950E9457100E94BD1008950F93FC
:1020B000012F0E946C100F9108958F939F930F939F
:1020C0000F7300640E94801090E088E20E94D0109C
:1020D0000F919F918F9108950F9300680E94801037
:1020E0000F9108958F939F93299A90E084E10E9425
:1020F000D010299884E10E94D0109F918F9108956B
:102100000F931F934F93102F107F000F000F000F9E
:10211000000F2898F8944BB14F70412B4BB978942D
:102120000E947210F8944BB14F70402B4BB97894C9
:102130000E9472104F911F910F9108950F931F935A
:102140004F93102F107F000F000F000F000F289AE1
:10215000F8944BB14F70412B4BB978940E94721098
:10216000F8944BB14F70402B4BB978940E94721089
:1021700028984F911F910F910895E0CF9F938F93CF
:102180000F9301E00E94801097E08FEF0E94D01023
:102190000F918F919F9108952A9A08952A980895F2
:1021A0004F9344E04A95F1F70197D9F74F9108957D
:040000000C94080153
:04002C000C946002CE
:1002000056414A49434B412055564152454E4100C3
:100210000E9400100E943D020E945502E0E0F2E0C0
:1002200040E050E020E030E000E0009300010E9458
:10023000210112E00AE30E9452100E9437010C943F
:1002400092010F936F9300E0642F6A3020F06A50A0
:1002500003950C94250110E0005D0E945210139547
:10026000062F005D0E9452106F910F9108950F9319
:100270006F9300E0652F6A3020F06A5003950C946C
:100280003B0113E0005D0E9452101395062F005DA4
:100290000E9452106F910F9108950F9360E00E9499
:1002A00074010091790002950F700330D1F00F9125
:1002B00008950F9360E00E94740100917900029507
:1002C0000F70013071F00F9108950F9360E00E945C
:1002D00074010091790002950F70093011F00F91AF
:1002E000089561E00F9108950F931F9310914000BE
:1002F00000917A00006400937A0000917A00102344
:100300001030D9F71F910F9108953F93322F31701C
:10031000303021F00E9421013F9108950E94F201A6
:100320003F910895709100017030E1F370E0709397
:10033000000123950E9485010E946501613021F131
:100340000E944D01613069F00E945901613061F0F5
:100350000E946A020C9492014C3320F34C530C948B
:10036000AC014A950C94AC0143950C94AC013F93BD
:10037000322F3170303021F00E9437013F910895C3
:100380000E94FE013F9108950E9421017091000199
:100390007030E1F370E07093000123950E94B70183
:1003A0000E9465016130C1F10E945901613031F054
:1003B0000E944D01613029F00C94C60153950C94B4
:1003C000E4015A950C94E4015C3300F35C530C9403
:1003D000E4015A955F3F09F00895403061F14A9574
:1003E0005BE308950F931F9300E010E00E9452100A
:1003F00013950E9452101F910F9108950F931F9310
:1004000000E013E00E94521013950E9452101F91B9
:100410000F9108950C940801709100017030E1F380
:1004200070E0709300010E9421010E9437010E9438
:10043000E9010C940C0210E040E050E070910001E2
:100440007030C9F370E07093000123950E94B701EA
:100450000E9485013395393011F00C941B020591EF
:100460000E9452101395003011F00C942F020E943C
:100470006501613079F20C9437020F93F8940027EC
:10048000009385000093840002E000936F000AE06F
:10049000009381000DE30093890008E00093880039
:1004A00000270DBB78940F9108950F9300917A0067
:1004B000006800937A0000E600937C000F91089595
:1004C0000F930FB70F9301E0009300010F910FBF3F
:1004D0000F9118954F935F936F936AE05AE04AE04B
:1004E0004A95F1F75A95D9F76A95C1F76F915F91DF
:0404F0004F9108958B
:00000001FF
