:020000020000FC
:102000004F938F939F930F93F89445B14C7F45B9AD
:1020100044B1436044B94BB14F704BB94AB1406FC2
:102020004AB9789490E084E60E94D01091E48FEF52
:102030000E94D010F8944BB14F7040634BB9789424
:102040000E94721091E18FEF0E94D010F8944BB172
:102050004F7040634BB978940E94721090E088E70B
:102060000E94D010F8944BB14F7040634BB97894F4
:102070000E947210F8944BB14F7040624BB9789443
:102080000E94721008E20E9480100CE00E948010F2
:1020900006E00E9480100E94BE100F919F918F91C8
:1020A0004F9108950E9457100E94BD1008950F93FC
:1020B000012F0E946C100F9108958F939F930F939F
:1020C0000F7300640E94801090E088E20E94D0109C
:1020D0000F919F918F9108950F9300680E94801037
:1020E0000F9108958F939F93299A90E084E10E9425
:1020F000D010299884E10E94D0109F918F9108956B
:102100000F931F934F93102F107F000F000F000F9E
:10211000000F2898F8944BB14F70412B4BB978942D
:102120000E947210F8944BB14F70402B4BB97894C9
:102130000E9472104F911F910F9108950F931F935A
:102140004F93102F107F000F000F000F000F289AE1
:10215000F8944BB14F70412B4BB978940E94721098
:10216000F8944BB14F70402B4BB978940E94721089
:1021700028984F911F910F910895E0CF9F938F93CF
:102180000F9301E00E94801097E08FEF0E94D01023
:102190000F918F919F9108952A9A08952A980895F2
:1021A0004F9344E04A95F1F70197D9F74F9108957D
:040000000C94080153
:04002C000C94970297
:1002000056414A49434B412055564152454E4100C3
:100210000E948C020E940010E0E0F2E080E060E0CA
:1002200040E050E020E094E10E94740200E000937E
:1002300000010E94230112E00AE30E9452100E9472
:1002400039010C9494010F936F9300E0642F6A308E
:1002500020F06A5003950C94270110E0005D0E9485
:1002600052101395062F005D0E9452106F910F914E
:1002700008950F936F9300E0652F6A3020F06A5065
:1002800003950C943D0113E0005D0E9452101395FC
:10029000062F005D0E9452106F910F9108950F93E9
:1002A00060E00E9476010091790002950F700330A2
:1002B000D1F00F9108950F9360E00E9476010091B4
:1002C000790002950F70013071F00F9108950F932E
:1002D00060E00E9476010091790002950F7009306C
:1002E00011F00F91089561E00F9108950F931F93FE
:1002F0001091400000917A00006400937A00009110
:100300007A0010231030D9F71F910F9108953F9371
:10031000322F3170303021F00E9423013F91089537
:100320000E941A023F9108950E94AD010E94B501FA
:100330000E94BD01709100017030B1F370E07093C4
:10034000000123950E9487018130F9F1833009F182
:10035000823051F180E00C9494010E946701613079
:10036000A1F4803091F481E008950E945B01613036
:1003700061F4803051F482E008950E944F016130B1
:1003800021F4803011F483E0089508954BE30C9438
:1003900094014A9580E04F3FC9F30C94CF014C3350
:1003A00018F24C530C94CF01439580E00C94CF018C
:1003B0003F93322F3170303021F00E9439013F914C
:1003C00008950E9426023F91089580E00E94230133
:1003D0000E94AD010E94B5010E94BD017091000113
:1003E0007030B1F370E07093000123950E94D80142
:1003F0008130E1F1823029F0833051F080E00C94BB
:10040000E801539580E00C940C025BE30C94E80146
:100410005A9580E05F3FC9F35C33D0F25C530C9493
:100420000C025A955F3F09F00895403089F14A95D2
:100430005BE308950F931F9300E210E00E945210B7
:1004400013950E9452101F910F9108950F931F93BF
:1004500000E213E00E94521013950E9452101F9167
:100460000F91089500E210E00C940A019DE30E94B0
:100470007402709100017030E1F370E0709300013C
:100480000E9423010E9439010E9411020C9439023A
:1004900010E040E050E0709100017030C9F370E06E
:1004A0007093000123950E94D8010E948701339523
:1004B000393011F00C94480260E005910E9452100E
:1004C0001395003011F00C945C0280E00E94AD01A5
:1004D000709100017030D1F370E0709300018130B1
:1004E00009F280E00C9466020F93F89400270093C1
:1004F00085000093840002E000936F000AE00093FF
:100500008100092F0093890008E0009388000027EC
:100510000DBB78940F9108950F9300917A000068B5
:1005200000937A0000E600937C000F9108950F93EA
:100530000FB70F9301E0009300010F910FBF0F91D0
:0205400018950C
:00000001FF
