:020000020000FC
:102000004F938F939F930F93F89445B14C7F45B9AD
:1020100044B1436044B94BB14F704BB94AB1406FC2
:102020004AB9789490E084E60E94D01091E48FEF52
:102030000E94D010F8944BB14F7040634BB9789424
:102040000E94721091E18FEF0E94D010F8944BB172
:102050004F7040634BB978940E94721090E088E70B
:102060000E94D010F8944BB14F7040634BB97894F4
:102070000E947210F8944BB14F7040624BB9789443
:102080000E94721008E20E9480100CE00E948010F2
:1020900006E00E9480100E94BE100F919F918F91C8
:1020A0004F9108950E9457100E94BD1008950F93FC
:1020B000012F0E946C100F9108958F939F930F939F
:1020C0000F7300640E94801090E088E20E94D0109C
:1020D0000F919F918F9108950F9300680E94801037
:1020E0000F9108958F939F93299A90E084E10E9425
:1020F000D010299884E10E94D0109F918F9108956B
:102100000F931F934F93102F107F000F000F000F9E
:10211000000F2898F8944BB14F70412B4BB978942D
:102120000E947210F8944BB14F70402B4BB97894C9
:102130000E9472104F911F910F9108950F931F935A
:102140004F93102F107F000F000F000F000F289AE1
:10215000F8944BB14F70412B4BB978940E94721098
:10216000F8944BB14F70402B4BB978940E94721089
:1021700028984F911F910F910895E0CF9F938F93CF
:102180000F9301E00E94801097E08FEF0E94D01023
:102190000F918F919F9108952A9A08952A980895F2
:1021A0004F9344E04A95F1F70197D9F74F9108957D
:040000000C94080153
:04002C000C948B02A3
:1002000056414A49434B412055564152454E4100C3
:100210000E9400100E9468020E948002E0E0F2E06A
:1002200080E060E040E050E020E030E000E000935B
:1002300000010E942A0112E00AE30E9452100E946B
:1002400040010C949B010E9452101395103131F320
:100250000C9423010F936F9300E0642F6A3020F019
:100260006A5003950C942E0110E0005D0E9452101C
:100270001395062F005D0E9452106F910F91089503
:100280000F936F9300E0652F6A3020F06A5003955A
:100290000C94440113E0005D0E9452101395062F48
:1002A000005D0E9452106F910F9108950F9360E0CE
:1002B0000E947D010091790002950F700330D1F00A
:1002C0000F9108950F9360E00E947D0100917900E5
:1002D00002950F70013071F00F9108950F9360E057
:1002E0000E947D010091790002950F70093011F094
:1002F0000F91089561E00F9108950F931F9310914E
:10030000400000917A00006400937A0000917A0026
:1003100010231030D9F71F910F9108953F93322F7A
:100320003170303021F00E942A013F9108950E94DF
:1003300019023F9108950E94B4010E94BC010E94DD
:10034000C401709100017030B1F370E0709300014E
:1003500023950E948E018130D1F1833019F18230D2
:1003600029F180E00C949B010E946E016130A1F4A0
:10037000803091F481E008950E946201613061F45F
:10038000803051F482E008950E945601613021F4DA
:10039000803011F483E0089508954C3360F24C539B
:1003A0000C94CD014A9580E00C94CD01439580E0FA
:1003B0000C94CD013F93322F3170303021F00E94E8
:1003C00040013F9108950E9425023F91089580E0E9
:1003D0000E942A010E94B4010E94BC010E94C40133
:1003E000709100017030B1F370E0709300012395BB
:1003F0000E94DA018130C9F1823029F0833039F06E
:1004000080E00C94EA01539580E00C940B025A951D
:1004100080E00C940B025C33E8F25C530C940B020A
:100420005A955F3F09F00895403071F14A955BE3BA
:1004300008950F931F9300E210E00E94521013954D
:100440000E9452101F910F9108950F931F9300E285
:1004500013E00E94521013950E9452101F910F91A9
:10046000089500E210E00C942301709100017030B7
:10047000E1F370E0709300010E942A010E944001A4
:100480000E9410020C94350210E040E050E07091A0
:1004900000017030C9F370E07093000123950E9451
:1004A000DA010E948E013395393011F00C94440228
:1004B00060E005910E9452101395003011F00C94E9
:1004C000580260E00E946E01613059F20C946102A2
:1004D0000F93F8940027009385000093840002E0B6
:1004E00000936F000DE0009381000DE300938900FD
:1004F00008E00093880000270DBB78940F910895C1
:100500000F9300917A00006800937A0000E6009350
:100510007C000F9108950F930FB70F9301E00093A4
:0A05200000010F910FBF0F91189515
:00000001FF
